:020000040800F2
:10000000881B002049010008691A00082B14000809
:10001000191A0008F1080008FD2600080000000079
:10002000000000000000000000000000492000085F
:10003000F50A000800000000151B00083521000823
:100040006301000863010008630100086301000800
:100050006301000863010008A112000863010008A1
:1000600063010008630100086301000863010008E0
:1000700063010008630100086301000863010008D0
:1000800063010008630100086301000863010008C0
:1000900063010008630100086301000863010008B0
:1000A00063010008630100086301000863010008A0
:1000B0006301000863010008630100086301000890
:1000C0006301000863010008630100086301000880
:1000D0006301000871220008ED22000801230008D6
:1000E0006301000863010008630100086301000860
:1000F0006301000863010008630100086301000850
:10010000630100086301000863010008630100083F
:10011000630100086301000863010008630100082F
:10012000630100086301000863010008630100081F
:10013000DFF810D000F03CFB004800478330000897
:10014000AFF30080881B0020064880470648004720
:10015000FEE7FEE7FEE7FEE7FEE7FEE7FEE7FEE777
:10016000FEE7FEE7B92100083101000840EA01037B
:100170009B0703D009E008C9121F08C0042AFAD25D
:1001800003E011F8013B00F8013B521EF9D2704721
:10019000D2B201E000F8012B491EFBD270470022C9
:1001A000F6E710B513460A4604461946FFF7F0FF76
:1001B000204610BD30B505462A460B4612F8010B05
:1001C00013F8014B08B1A042F8D01CB1002802D0AE
:1001D0006D1CF1E7284630BD421C10F8011B0029B8
:1001E000FBD1801A7047F0B480EA0102D40F4200BC
:1001F000B2EB410F02D20246084611464A0042D0F5
:10020000C30DDDB2C1F3C752AD1A202D35DAC1F3EB
:10021000160141F4000204B15242C5F1200602FA6F
:1002200006F12A411044B3EBD05F23D0C4B1012DB5
:10023000A0EBC35009DCF0BC4FF0004202EAC3520D
:10024000DBB200F5000000F0CCB8400000F1807097
:1002500000EBC350A0F1807040EAD170490009E082
:10026000490841EAC071A0EBC35000F50000400806
:1002700000EBC350F0BC00F0ABB86142012202EBCE
:100280004101001BF6E7F0BC704781F00041AAE78E
:1002900080F00040A7E730B480EA010202F0004598
:1002A00030F0004221F0004013D090B1C30DD40DC6
:1002B000C2F31601C0F31600E41A41F4000140F441
:1002C00000027D34914201D3641C00E04900002CFF
:1002D00002DA30BC002070474FF400000023914246
:1002E00001D3891A034340084FEA4101F7D151B1C4
:1002F000914202D14FF0004105E002D24FF00101DE
:1003000001E06FF0010103EBC450284430BC00F061
:100310005FB896230022114600F063B800F0004257
:1003200030F000400AD0C10D01F56071C0F3160035
:1003300042EA0151C20840071143704700200146BC
:10034000704730B50B46014600202022012409E009
:1003500021FA02F59D4205D303FA02F5491B04FA7E
:1003600002F52844151EA2F10102F1DC30BD2DE991
:10037000F05F0546002092469B4688460646814629
:1003800040241BE0284641464746224600F031FA09
:1003900053465A46C01A914110D311461846224678
:1003A00000F018FA2D1A67EB01084F46224601208B
:1003B000002100F00FFA17EB00094E41201EA4F1B6
:1003C0000104DFDC484631462A464346BDE8F09F3B
:1003D0000029A8BF7047401C490008BF20F0010059
:1003E000704710B4B0FA80FC00FA0CF050EA010437
:1003F00004BF10BC704749B1CCF1200421FA04F4C9
:1004000011FA0CF118BF012121430843A3EB0C01A1
:10041000CB1D4FEA00614FEA102042BF002010BC04
:10042000704700EBC35010440029A4BF10BC7047B4
:10043000401C490008BF20F0010010BC70472DE9A6
:10044000FE4F804681EA0300C00F0C46009021F069
:10045000004123F00045B8EB0200A94105D2404617
:10046000214690461C460B46024623F000401043AE
:1004700047D0270DC7F30A00C3F30A510290401A70
:10048000019040286BDAC3F3130040F4801B0098FE
:10049000924620B10023D2EB030A63EB0B0B0198C9
:1004A0005946C0F14002504600F094F906460D4608
:1004B00050465946019A00F0ACF910EB0800614132
:1004C000002487EA115284EAE7731A4340D0009A65
:1004D00062B3019A012A4FEA075215DC001B61EB57
:1004E00002014FF0004202EA0752CDE90042001C2F
:1004F00041F5801132462B4600F0ACF903B0BDE85F
:10050000F08F40462146F9E7001B61EB0201001C19
:1005100041F5801300185B412018A2F5001747EB46
:10052000030140EAD570B6196D4111E06D084FEA3C
:10053000360645EAC0754FEA0752001B61EB02011F
:10054000001C41F5801149084FEA30000019514163
:1005500032462B4603B0BDE8F04F00F06CB900986E
:10056000012240000023D0EB020263EBE07300980D
:1005700021464FEAE074B8EB000061EB0401E9E7C3
:1005800083F000435BE781F0004158E72DE9FE4F1F
:1005900081EA030404F0004421F0004100944FF08C
:1005A000000B23F0004350EA01045ED052EA03043A
:1005B0005BD0C3F30A54C1F30A552C44A4F2F334BC
:1005C0000194A0FB0254C1F3130141F48011C3F361
:1005D000130343F4801301FB024400FB034E840A1F
:1005E000970A44EA815447EA8357A4FB07680295B7
:1005F0008D0A05FB07854FEA932C04FB0C54270555
:10060000029D4FEA065847EA1637B5EB08056EEB30
:10061000070C870E920E47EA811742EA8312A7FB66
:100620000201B6EB0B0164EB00042B0D43EA0C3323
:100630005E1844EB1C50DA465146E7FB0201C5F355
:1006400013044FEA0B3343EA14534FEA0432019C7C
:1006500043EA0603A4F10C040294009CCDE900B423
:1006600000F0F8F803B0BDE8F08F00200146F9E78C
:100670002DE9F04D81EA030404F0004B21F0004520
:1006800014464FF0000A23F0004150EA050220D042
:1006900054EA01021DD0C5F30A570246C5F31303FD
:1006A000C1F31300C1F30A5640F4801543F48013DC
:1006B000A7EB0608101BD64608F2FD3873EB0500C1
:1006C00002D308F1010801E092185B41B8F1000F74
:1006D00003DA00200146BDE8F08D00204FF48011C0
:1006E000064684460EE0171B73EB050705D3121B65
:1006F00063EB050306434CEA010C49084FEA30005E
:1007000092185B4150EA0107EDD152EA030012D082
:1007100082EA040083EA0501084305D0101BAB41BF
:1007200006D20122002306E000224FF0004302E03F
:100730006FF0010253101AEB06004CEB085110EB5E
:100740000A0041EB0B01BDE8F04D00F074B8C1F3B5
:100750000A52C1F3130140F2FF3341F480119A426F
:1007600002DA00200146704740F233439A42A2F277
:10077000334202DC524200F03CB800F02BB80000DB
:1007800030B5041E71F1000404DB4FF00044404218
:1007900064EB0101141E73F1000405DB1C464FF0ED
:1007A0000043524263EB0403994208BF904230BDBC
:1007B000064C074D06E0E06840F0010394E80700AE
:1007C00098471034AC42F6D3FFF7B6FCDC31000892
:1007D000FC310008202A04DB203A00FA02F1002054
:1007E00070479140C2F1200320FA03F3194390406F
:1007F0007047202A04DB203A21FA02F000217047DA
:1008000021FA02F3D040C2F1200291400843194678
:100810007047202A06DBCB17203A41FA02F043EA60
:10082000E07306E041FA02F3D040C2F120029140A9
:1008300008431946704710B5141E73F1000408DA16
:10084000401C41F1000192185B411A4301D120F094
:10085000010010BD2DE9F04D92469B4611B1B1FA51
:1008600081F202E0B0FA80F220329046FFF7B2FF48
:1008700004460F4640EA0A0041EA0B0153465A4635
:10088000084313D0114653EA010019D0C8F14002C1
:100890005046FFF7AEFF05460E46504659464246C3
:1008A000FFF798FF084305D0012004E020463946B1
:1008B000BDE8F08D0020054346EAE0762C4337433F
:1008C0000A986305E40AA0EB08000022FD0A44EA46
:1008D00047540A3002D500200146E9E70105101906
:1008E0006941DDE9084500196941BDE8F04DA2E71D
:1008F00000BFFEE70748006840F0807005490860C7
:100900000020054948600846006840F00100086082
:1009100070470000FCED00E0001000E00148406876
:1009200070470000001000E031B50024FFF7E2FF3F
:10093000104800681049B0FBF1F0009900FB01F588
:1009400000BFFFF7EBFF034611E0FFF7E7FF0246AA
:100950009A420CD09A4202D9D01A044403E0C3F15F
:10096000FF30104404441346AC4200D300E0ECE7EF
:1009700000BF38BD0000002040420F0008B5012133
:10098000102001F0D9F81020ADF800008DF8030018
:1009900003208DF802006946014800F0A5FC08BD5F
:1009A0000010014010B5FFF7E9FF1021014800F0E9
:1009B0003AFD10BD0010014008B51020ADF8000050
:1009C00048208DF803006946014800F08DFC08BD01
:1009D0000010014008B51020ADF800008DF80300AC
:1009E00003208DF802006946014800F07DFC08BD37
:1009F0000010014070B50025002424E000BF102144
:100A0000134800F0FCFC0028F9D02820FFF78CFFE9
:100A100010210F4800F0F3FC01280DD100BF102178
:100A20000B4800F0ECFC0128F9D0C4F107010120CB
:100A30008840C0B2054304E0C4F1070101208840AA
:100A40008543601CC4B2082CD8DB284670BD00006A
:100A50000010014010B50446FFF7BCFF10212448E8
:100A600000F0DFFC44F25060FFF75EFF10212048E9
:100A700000F0D9FC1E20FFF757FFFFF79DFF102164
:100A80001B4800F0BCFC70BB00BF1021184800F0F0
:100A9000B6FC0028F9D000BF1021154800F0AFFCCB
:100AA0000128F9D0FFF7A6FF2070FFF7A3FF6070C1
:100AB000FFF7A0FFA070FFF79DFFE070FFF79AFF20
:100AC0002071FFF787FF1021094800F0ACFC207867
:100AD00061780844A1780844E17808442179884283
:100AE00002D1012010BD01E00020FBE70020F9E762
:100AF00000100140704710B504464FF47A7104FBB2
:100B000001F0FFF711FF10BD01B50849009808601A
:100B10004FF0E020006940F001004FF0E021086153
:100B200000BF024800680028FBD108BD3800002043
:100B300010B500244FF400510C4800F074FC4FF441
:100B4000FA60FFF7D8FF0CE04FF4FA73002208A117
:100B500008A000F011F800B110BD00F0D9F9601C38
:100B6000C4B20A2CF0DB00BFF6E70000000C014025
:100B70004F4B0000415400002DE9F04106460C4661
:100B800015461F462D48B0F800046FF30E002B49A0
:100B9000A1F8000432462AA12B4801F02CFD1CB913
:100BA00015B90120BDE8F0813846FFF7A4FF002009
:100BB0002249B1F80014C1F30E01204A50541146E5
:100BC00022A001F09DFD1D48B0F800046FF30E0057
:100BD0001A49A1F800040846B0F8000420F40040C7
:100BE000A1F80004B4B1ADB121461448FFF7E2FA10
:100BF00008B1012000E0002040B929460F48FFF766
:100C0000D9FA08B1012000E0002008B10120C9E7AD
:100C10000020C7E744B121460848FFF7CBFA08B1E6
:100C20000120BFE70020BDE729460448FFF7C2FACC
:100C300008B10120B6E70020B4E700002803002037
:100C400025730D0A000000000048004025730000D5
:100C500010B586B004460CB1012000E00020024629
:100C600006A101A801F05CFD4FF4FA73002207A170
:100C700001A8FFF781FF06B010BD000041542B43CF
:100C800049504D55583D2564000000004F4B000071
:100C900010B54FF47A70FFF72EFF04A1044801F05D
:100CA000AAFC4FF4FA70FFF726FF10BD2B2B2B0088
:100CB0000048004008B50121082000F03DFF4FF436
:100CC0008050ADF8000010208DF8030003208DF84F
:100CD00002006946074800F007FB0121082000F0E8
:100CE0002BFF4FF40050ADF800006946014800F0BA
:100CF000FBFA08BD000C014010B54FF4FA73002256
:100D00000DA10EA0FFF738FFA0B110A11248FFF708
:100D100051FA08B1022010BD10A10F48FFF74AFA9E
:100D200008B10320F7E710A10B48FFF743FA08B119
:100D30000420F0E70020EEE74F4B000041542B4326
:100D400049505354415455530000000053544154EA
:100D500055533A320D0A00002803002053544154E1
:100D600055533A330D0A00005354415455533A3405
:100D70000D0A000010B5FFF79DFF00F009FA4FF4CF
:100D80000051044800F04FFB4FF48051014800F03F
:100D900048FB10BD000C014030B59FB004460D4625
:100DA0002B46224606A101A801F0BAFC41F2883385
:100DB000002208A101A8FFF7DFFE1FB030BD000030
:100DC00041542B43574A41503D222573222C222562
:100DD000732200004F4B0000F0B5B9B006460F4635
:100DE00014461D46642120A8FFF7D9F916B1012E3B
:100DF00010D107E03B4614A214A120A8009401F0F2
:100E00008FFC08E03B4615A210A120A8009401F039
:100E100087FC00E000BF00BF052D06DA20AB2A46A4
:100E20000FA102A801F07CFC04E020AA11A102A8F5
:100E300001F076FC4FF47A6312A216A102A8FFF724
:100E40009BFE39B0F0BD00005443500022257322B0
:100E50002C222573222C25730000000055445000DD
:100E600041542B43495053544152543D25642C2541
:100E70007300000041542B43495053544152543D98
:100E800025730000414C5245415920434F4E4E4579
:100E9000435400004F4B000010B5044624B1012C10
:100EA0000AD0022C18D10FE040F6C4130BA20EA1F9
:100EB0000EA0FFF761FE10BD40F6C41307A20AA101
:100EC0000DA0FFF759FEF6E740F6C41303A206A1F2
:100ED0000CA0FFF751FEEEE70020ECE76E6F2063F9
:100EE00068616E67650000004F4B000041542B4362
:100EF000574D4F44453D310041542B43574D4F44CE
:100F0000453D320041542B43574D4F44453D33003E
:100F100010B54FF40051064800F083FA4FF4FA7010
:100F2000FFF7E9FD4FF40051014800F07CFA10BDD5
:100F3000000C014010B53848B0F800040121B1EBB5
:100F4000D03F16D13448B0F80004C0F30E01324847
:100F500000F0A0FE3048B0F800046FF30E002E49F8
:100F6000A1F800040846B0F8000420F40040A1F8FD
:100F700000042A48B0F80004C00BD0B12748B0F8EC
:100F80000004C0F30E01254800F074FC10B10120EC
:100F9000234908702148B0F800046FF30E001F4980
:100FA000A1F800040846B0F8000420F40040A1F8BD
:100FB00000041C48007800282CD0FFF769FE0020B0
:100FC0001749087000BFFFF797FE174908700846D9
:100FD00000780028F7D008460078042815D113A01F
:100FE00001F08EFB00BF19A11DA0FFF7D5FE002860
:100FF000F9D000BF05231EA220A10020FFF7ECFEC0
:101000000028F7D021A001F07BFB00BF00F022F9FF
:101010000028FBD010BD00002A0700202803002074
:101020004500002044000020460000200D0AD5FDA8
:10103000D4DAD6D8C1ACC8C8B5E3BACDB7FECEF1C4
:10104000C6F7202E2E2E2E2E2E0D0A0073616D70E7
:101050006C655749464970617373776F726400001D
:1010600073616D706C65574946496E616D6500002E
:1010700073616D706C65706F7274000073616D7078
:101080006C65495061646472657373000D0AD6D84B
:10109000C1ACC8C8B5E3BACDB7FECEF1C6F7B3C987
:1010A000B9A60D0A0000000010B516A001F028FB3B
:1010B0004FF480511A4800F0B6F9FFF739FD0020CF
:1010C000FFF7EAFE00BF17A11BA0FFF765FE00288F
:1010D000F9D00020FFF7BCFD00BF05231AA21DA117
:1010E0000020FFF779FE0028F7D000BF00F0B2F82B
:1010F0000028FBD01BA001F003FB20A001F000FBA7
:1011000010BD00000D0AD5FDD4DAC5E4D6C32045D4
:10111000535038323636202E2E2E2E2E2E0D0A000B
:10112000000C014073616D706C65574946497061F0
:101130007373776F7264000073616D706C655749EB
:1011400046496E616D65000073616D706C65706F0E
:101150007274000073616D706C65495061646472F3
:10116000657373000D0AC5E4D6C320455350383269
:10117000363620CDEAB1CF0D0A0000000D0ABFAA15
:10118000CABCCDB8B4AB2E2E2E2E2E2E0D0A0000CA
:1011900000B585B00121880400F0BEFC01210820C3
:1011A00000F0CAFC4FF48060ADF8100018208DF8F4
:1011B000130003208DF8120004A91A4800F094F8D7
:1011C0004FF40060ADF8100004208DF8130004A95E
:1011D000144800F089F84FF4E13000900020ADF899
:1011E0000400ADF80600ADF80800ADF80C000C20C6
:1011F000ADF80A0069460C4801F088F9012240F276
:101200002551094801F05DF9012240F224410648C8
:1012100001F057F900F00AF80121034801F0C0F885
:1012200005B000BD000C01400048004008B54FF477
:10123000A06000F065FC27208DF8000000208DF8EC
:1012400001008DF8020001208DF80300684600F0CF
:101250001FFC08BD10B54FF4FA73002207A108A0C7
:10126000FFF78AFC08B9002010BD4FF4FA7308A2FA
:1012700002A108A0FFF780FCF6E700004F4B00003A
:1012800041542B4349504D4F44453D31000000002F
:101290003E00000041542B43495053454E4400004A
:1012A00010B5012000F00CF810B1012000F002F898
:1012B00010BD00000149086070470000140401409F
:1012C000014600200022074B1B6803EA0102054B80
:1012D00014331B680B4013B10AB1012000E0002059
:1012E00070470000000401402DE9F041024600254E
:1012F0000026002000230024002791F803C00CF0F2
:101300000F0591F803C00CF0100CBCF1000F03D0D6
:1013100091F802C04CEA050591F800C0BCF1000F3D
:1013200031D0146800202BE04FF0010C0CFA00F3D0
:10133000B1F800C00CEA03069E4220D183004FF0B2
:101340000F0C0CFA03F7BC4305FA03FC4CEA040447
:1013500091F803C0BCF1280F06D14FF0010C0CFA34
:1013600000FCC2F814C00AE091F803C0BCF1480FB9
:1013700005D14FF0010C0CFA00FCC2F810C0401C63
:101380000828D1D31460B1F800C0BCF1FF0F34DDE0
:10139000546800202EE000F1080C4FF0010808FA14
:1013A0000CF3B1F800C00CEA03069E4221D1830081
:1013B0004FF00F0C0CFA03F7BC4305FA03FC4CEAA0
:1013C000040491F803C0BCF1280F05D100F1080C0A
:1013D00008FA0CF8C2F8148091F803C0BCF1480F69
:1013E00007D100F1080C4FF0010808FA0CF8C2F818
:1013F0001080401C0828CED35460BDE8F08102461E
:10140000002093680B400BB1012000E000207047E2
:1014100002460020D3680B400BB1012000E0002001
:101420007047416170470161704700BFFEE70000EF
:1014300008B50121202000F07FFB0420ADF800005A
:1014400010208DF8030003208DF802006946024841
:10145000FFF74AFF08BD00000014014010B5FFF778
:10146000E7FF04210148FFF7DEFF10BD0014014033
:1014700030B50246002300BF0846CD1701EB556585
:10148000ED11A1EBC515ECB2CD1701EB5565E911D6
:10149000002901DD44F0800418465B1C1454002927
:1014A000EADC184630BD0000401C802801DA401CF0
:1014B0000AE0B0F5804F01DA801C05E0034988425C
:1014C00001DAC01C00E0001D70470000FFFF1F0094
:1014D0002DE9FE4305460E46144602950020019074
:1014E000009000274FF0FF38204600F0A5F807468F
:1014F0008146FFF7D9FFB04202DD6FF001088FE0AF
:1015000000208DF80400019820F0F00010300190C8
:101510009DF8041002A801F0F4FD39460298FFF787
:10152000A7FF029908440290207A042808D13EA11E
:1015300002A801F0D2FD042102A801F0E2FD07E0BB
:101540003BA102A801F0C9FD032102A801F0D9FDC9
:1015500000208DF80000A17E009861F3410000900A
:10156000E07E08B1012100E00021009861F38200D3
:1015700000900098C0F3800058B194F83D10009896
:1015800061F3C400009094F83C10009861F345109A
:101590000090206C08B9A06C20B1009820F0800069
:1015A00080300090E06C08B9606D20B1009820F0A8
:1015B0004000403000909DF8001002A801F0A1FD0D
:1015C000218B02A801F0A3FD02A8D4E90423E1685D
:1015D00001F0B5FDE07E58B102A8D4E90A23616AA2
:1015E00001F0ADFD02A8D4E90D23216B01F0A7FDA8
:1015F0000098C0F3C01028B102A8D4E91123216CCF
:1016000001F09DFD0098C0F3801028B102A8D4E934
:101610001423E16C01F093FD0298A0EB050800BFD4
:101620004046BDE8FE8300004D51545400000000C8
:101630004D5149736470000070B504460025207A4E
:10164000032801D10C2503E0207A042800D10A25C3
:10165000D4E90412E06800F0D3F9801C0544E07E70
:1016600068B1D4E90A12606A00F0CAF9861CD4E9AC
:101670000D12206B00F0C4F93044801C0544206C2E
:1016800008B9A06C30B1D4E91112206C00F0B8F99F
:10169000801C0544E06C08B9606D30B1D4E91412C7
:1016A000E06C00F0ADF9801C0544284670BD4D216A
:1016B000017051214170542181704321C17000217A
:1016C0004160042101724D21017751224277542259
:1016D00082775722C27770472DE9F04F87B00546D1
:1016E0000F4690461C46DDE915B6DDE9109A0695D1
:1016F00000200590049003900096204612A90EC980
:1017000000F042F804900290FFF7CEFEB84203DDED
:101710006FF00100039033E0059820F0F0003030C6
:101720000590059868F3C3000590059864F342009E
:101730000590059869F3000005909DF8141006A81F
:1017400001F0DFFC04990698FFF792FE0699084421
:10175000069006A812A90EC901F0F1FC002C03DDC9
:10176000514606A801F0D3FC324659460698FEF7CA
:10177000FDFC0698304406900698401B039000BF7D
:10178000039807B0BDE8F08F7FB50546089E00249A
:1017900001A807C800F034F9801C30440444002D2F
:1017A00000DDA41C204604B070BD000010B5ADF5EE
:1017B000167D24480078401C224908702248007891
:1017C00010B10020214908701E480078282835DB18
:1017D00000201C4908701C48007818B100201B49E3
:1017E00008702BE019480078F8B919A31AA21CA1B7
:1017F000684600F04BF804462146684600F01CF9A4
:101800001A480078401C1949087008460078782862
:1018100014DB684601F053FC04462146684600F09C
:101820000BF900201149087008E011A1684600F08A
:1018300073F804462146684600F0FEF80DF5167D63
:1018400010BD0000310000204400002045000020B1
:10185000444854313100000034323335363400000E
:10186000373134313333393639000000300000204D
:101870004169720010B503460C46184600F0CEF8D8
:10188000002801DB012010BD0020FCE72DE9F0431A
:10189000B3B006460C4617461D46802113A8FEF736
:1018A0007EFC4FF00008C146482101A8FEF777FCF6
:1018B000224615A1154800F033FF3A4612A11348FD
:1018C000643000F02DFF2A460FA1114800F028FFD8
:1018D0001048FFF7ECFE0D480E49C86078200883D9
:1018E000012088760948643008640948C8640A46BB
:1018F0004FF416713046FFF7EBFD1FFA80F8C14632
:10190000484633B0BDE8F083257300006C0000202A
:10191000FC0100202C0B00202DE9F04FADF5097DD6
:1019200083468A464FF4C87124A8FEF738FC00208D
:101930002390482111A8FEF732FC002010900F9050
:101940000C900D900E90524629A111A800F0E8FECF
:1019500028498868FEF7E2FC04460D462549C86818
:10196000FEF7DCFC06460F4622490868FEF7D6FC67
:10197000804689461F494868FEF7D0FCCDE90A0138
:101980001D480068CDE9064508901A4800691949C4
:101990008969CDE90089CDE90267CDE904101749CD
:1019A00024A8DDE90A2300F0BBFE80B22390124890
:1019B0000068401C1049086011A80C9024A92398C5
:1019C000CDE905100CA807C802AB07C300200090A2
:1019D000012302464FF4C87101905846FFF77CFE80
:1019E00080B20F900F980DF5097DBDE8F08F0000D3
:1019F00025730000500000202C0000207C310008DE
:101A000037B50024009820B10098FEF7E5FB0446A6
:101A100000E0019C20463EBD00BFFEE700B5024647
:101A2000104601F056FB022803D1104601F04EFB90
:101A300000BD4FF0FF30FBE770B505460E460024B1
:101A40000CE000BF4021074800F004FD0028F9D059
:101A5000295D044800F0CBFD601C84B2B442F0DB89
:101A600070BD000000480040704708B54FF4A0600A
:101A700000F046F825208DF8000001208DF80100C7
:101A80008DF802008DF80300684600F001F808BDEB
:101A900070B5002100230F22C47804B3154C2468CC
:101AA00004F4E064C4F5E064210AC1F10403CA400F
:101AB000447804FA03F184781440214309010E4C60
:101AC0000678A155047804F01F050124AC40057880
:101AD0006D11AD0005F1E025C5F8004109E004787D
:101AE00004F01F050124AC40044D0678761145F83A
:101AF000264070BD0CED00E000E400E080E100E075
:101B000002490143024A1160704700000000FA05D3
:101B10000CED00E07047000029B1064AD26902438B
:101B2000044BDA6104E0034AD2698243014BDA6173
:101B3000704700000010024029B1064A9269024332
:101B4000044B9A6104E0034A92698243014B9A6113
:101B5000704700000010024030B500210022002430
:101B600000232D4D6D6805F00C0121B1042905D02D
:101B7000082923D105E0294D056022E0274D0560A5
:101B80001FE0254D6D6805F47012234D6D6805F456
:101B90008034022505EB92421CB9214D5543056066
:101BA0000BE01D4D6D6805F400351DB11C4D55430E
:101BB000056002E0194D5543056002E0174D0560D0
:101BC00000BF00BF144D6D6805F0F0010909154D07
:101BD0006B5C0568DD4045600F4D6D6805F4E061A4
:101BE000090A104D6B5C4568DD4085600A4D6D68E3
:101BF00005F46051C90A0B4D6B5C4568DD40C5605A
:101C0000054D6D6805F44041890B074D6B5CC56857
:101C1000B5FBF3F5056130BD0010024000127A00FB
:101C200000093D00140000202400002070B5154874
:101C30000078401C1349087008460078282820DBEB
:101C40001148FEF707FF012818D10F490878FEF761
:101C500060FB0E4908600C49C878FEF75AFB06463F
:101C60000B49FEF718FB044607498878FEF751FB3D
:101C700005462146FEF7B7FA0449486000200149AD
:101C8000087070BD33000020470000205000002085
:101C90000000C84230B50B460022002102E0445C3F
:101CA0002244491C1E29FADB0478422C1DD14478B9
:101CB0004D2C1AD1C57F847F05EB0424944214D1A6
:101CC000C57A847A05EB0424084D6C61457B047B5E
:101CD00005EB0424054D2C61C57B847B05EB0424B6
:101CE000024DAC6100240470447030BD50000020EF
:101CF00070B510480078401C0E49087008460078FE
:101D0000282815DB0821202000F082F900F05CF97A
:101D10000446250CA6B23046FEF7FBFA0649886059
:101D20002846FEF7F6FA0449C86000200149087009
:101D300070BD0000340000205000002008B50220D3
:101D4000ADF8000001208DF8020004208DF803009A
:101D500069460248FFF7C8FA08BD0000000C0140C0
:101D600008B50220ADF8000010208DF80300032014
:101D70008DF8020069460248FFF7B6FA08BD000078
:101D8000000C014008B501210820FFF7D5FE012015
:101D9000ADF8000010208DF8030003208DF802003C
:101DA00069460548FFF7A0FA0220ADF80000694631
:101DB0000148FFF799FA08BD000C014010B500205A
:101DC0000A490860FFF7CCFF00200949C1F88401E7
:101DD0001420FEF7A9FD0120044908601420FEF735
:101DE000A3FD00200249C1F8800110BD808121427D
:101DF0000080214210B500200A490860FFF7B0FFBB
:101E000001200949C1F884011420FEF78DFD01204D
:101E1000044908601420FEF787FD00200249C1F83C
:101E2000800110BD808121420080214270B50546AD
:101E30000024FFF783FF002619E000201149086005
:101E40001420FEF771FD01200F49C1F880014FF603
:101E5000FF7000EA440402210C48FFF7D0FA08B1F1
:101E6000601C84B21420FEF75FFD701CC6B2082E01
:101E7000E3DB15B9FFF7BEFF01E0FFF79FFF204648
:101E800070BD00008081214200802142000C014091
:101E900070B50446FFF764FF002014490860002570
:101EA0001EE0E00920B101201049091D086003E08F
:101EB00000200E49091D08606006040E1420FEF77C
:101EC00033FD0120094908601420FEF72DFD002094
:101ED0000749C1F880011420FEF726FD681CC5B231
:101EE000082DDEDB1420FEF71FFD70BD808121422E
:101EF0000080214210B5FFF733FF01200949086037
:101F00000949C1F880011420FEF70EFD00200549A3
:101F100008601420FEF708FD00200349C1F8800185
:101F200010BD0000848121420080214210B5FFF7DE
:101F300017FF0020084908600849C1F884011420EF
:101F4000FEF7F2FC0120044908600449C1F884014D
:101F50001420FEF7E9FC10BD80812142008021425F
:101F600010B50024FFF7EAFE0120104908600A209E
:101F7000FEF7DAFC01200E49C1F880010A20FEF7C5
:101F8000D3FC07E0601CC4B2FA2C03DDFFF7CEFFE0
:101F9000012010BD02210748FFF731FA0028F1D1D6
:101FA0000249091F086000BFF3E700008481214255
:101FB00000802142000C014010B5FFF7E3FE032131
:101FC000202000F025F810BD70B5FFF793FFB12079
:101FD000FFF75EFFFFF7C4FF0120FFF727FF04466E
:101FE00024020120FFF722FF04440120FFF71EFF17
:101FF000C5B200BF24020120FFF718FF04442402E9
:102000000020FFF713FF0444FFF790FF204670BD48
:1020100070B505460C46FFF76DFFB020FFF738FF9F
:10202000FFF79EFF2846FFF733FFFFF799FF204693
:10203000FFF72EFFFFF794FFFFF778FF0148FEF749
:1020400073FC70BDA0860100704710B500F002F867
:1020500010BD00000CB500200190009033480068CE
:1020600040F480303149086000BF3048006800F417
:10207000003000900198401C0190009818B9019818
:10208000B0F5A06FF1D12948006800F4003010B11C
:102090000120009001E0002000900098012843D129
:1020A0002348006840F01000214908600846006895
:1020B00020F0030008600846006840F00200086055
:1020C0001A48406819494860084640684860084610
:1020D000406840F4806048600846406820F47C1006
:1020E00048600846406840F4E810486008460068C8
:1020F00040F08070086000BF0C48006800F000707D
:102100000028F9D00948406820F0030007494860DA
:102110000846406840F00200486000BF034840683D
:1021200000F00C000828F9D10CBD0000001002409E
:102130000020024010B500F06FF810BD30B51A480D
:1021400000681A4AB0FBF2F1B1F1807F01D301209F
:102150001DE021F07F40401E4FF0E02250615017FB
:102160000F22002807DA13071D0E114B00F00F0491
:10217000241F1D5503E013071C0E0E4B1C5400BFFB
:1021800000204FF0E022906107201061002008B18C
:1021900000BFFEE74FF0E020006920F001004FF0A3
:1021A000E021086130BD00000000002040420F0027
:1021B00018ED00E000E400E010B51348006840F0BE
:1021C00001001149086008464068104908400E495E
:1021D0004860084600680E4908400B4908600846F8
:1021E000006820F4802008600846406820F4FE0063
:1021F00048604FF41F008860FFF727FF4FF0006032
:102200000449086010BD0000001002400000FFF803
:10221000FFFFF6FE08ED00E00448006820B1034827
:102220000068401E01490860704700003800002027
:1022300010B50D480078401C0B490870084600781E
:102240000A2810DB04210948FFF7E2F820B1042135
:102250000648FFF7E6F803E004210448FFF7E3F837
:1022600000200149087010BD280000200014014022
:1022700010B540F225511B4800F0F9F8D8B11948C3
:1022800000F0B0F9C4B21848B0F80004C0F30E0072
:1022900040F2FF3188420EDA1349B1F80014C1F35D
:1022A0000E00411C104AB2F8002461F30E020E49E0
:1022B000A1F800240C5440F224410A4800F0D7F859
:1022C00001280DD10848B0F8000420F4004000F5C2
:1022D00000400549A1F80004024800F083F9C4B2A7
:1022E00010BD0000003801402A07002010B540F260
:1022F0002551024800F0BBF810BD0000004400402A
:1023000010B540F22551204800F0B1F8D8B11E4870
:1023100000F068F9C4B21D48B0F80004C0F30E0024
:1023200040F2FF3188420EDA1849B1F80014C1F3C7
:102330000E00411C154AB2F8002461F30E02134945
:10234000A1F800240C5440F224410F4800F08FF80B
:10235000012817D10D48B0F8000420F4004000F522
:1023600000400A49A1F80004074800F03BF9C4B254
:1023700007A10648FDF71EFF08B1012000E000207C
:102380000649087010BD00000048004028030020E6
:10239000434C4F5345440D0A000000004400002008
:1023A00021B1828942F40052828104E082894DF693
:1023B000FF731A408281704700B585B00121042067
:1023C000FFF7BAFB01218803FFF7B6FB4FF400705B
:1023D000ADF8100018208DF8130003208DF81200BE
:1023E00004A91A48FEF780FF4FF48060ADF8100092
:1023F00004208DF8130004A91448FEF775FF4FF46C
:10240000165000900020ADF80400ADF80600ADF8BD
:102410000800ADF80C000C20ADF80A0069460C4825
:1024200000F074F8FFF721FB012240F22551084823
:1024300000F047F8012240F22441054800F041F83D
:1024400001210348FFF7ACFF05B000BD00080140C3
:102450000038014002460020B1F5007F00D100BFE6
:1024600013880B400BB1012000E00020704770B5CD
:102470000246002400230025002040F66A16B142DF
:1024800000D100BFC1F3421501F01F03012606FA77
:1024900003F3012D02D19689334006E0022D02D1CB
:1024A000168A334001E0968A33400C12012606FA60
:1024B00004F41688344013B10CB1012000E0002070
:1024C00070BDF0B50346002400260025002040F62C
:1024D0006A17B94200D100BF1846C1F3421401F097
:1024E0001F06012707FA06F5012C01D10C3004E084
:1024F000022C01D1103000E014301AB107682F43CC
:10250000076002E00768AF430760F0BD2DE9F047C0
:1025100086B005460E460024A24600BFA14600270D
:10252000B08900B100BF2F462C8A4CF6FF700440E2
:10253000F08804432C82AC894EF6F3100440B08836
:1025400031890843718908430443AC81AC8A4FF652
:10255000FF400440B0890443AC8201A8FFF7FCFAB5
:102560001F48874202D1DDF810A001E0DDF80CA081
:10257000A88900F4004040B10AEBCA0000EB0A1041
:1025800031684900B0FBF1F807E00AEBCA0000EB44
:102590000A1031688900B0FBF1F86420B8FBF0F054
:1025A00004012009642101FB1089A88900F400407E
:1025B00040B1322000EBC900B0FBF1F000F00700A1
:1025C000044308E0322000EB09106421B0FBF1F075
:1025D00000F00F0004432C8106B0BDE8F087000036
:1025E0000038014001468888C0F308007047C1F3F5
:1025F0000802828070470FB470B586B006460CA8FA
:10260000019073E00B9800785C281CD10B98401C5B
:102610000B9000786E2809D072280FD10D2130461A
:10262000FFF7E5FF0B98401C0B900BE00A213046AA
:10263000FFF7DDFF0B98401C0B9003E00B98401C4C
:102640000B9000BF4BE00B980078252840D10B98E9
:10265000401C0B900078642818D0732833D101985F
:1026600010C801900BE021783046FFF7C0FF00BF93
:1026700080213046FFF7EEFE0028F9D0641C207858
:102680000028F0D10B98401C0B9020E0019820C846
:1026900001900A2202A9284600F0C2FC02AC0BE01D
:1026A00021783046FFF7A3FF00BF80213046FFF7B7
:1026B000D1FE0028F9D0641C20780028F0D10B98B6
:1026C000401C0B9003E00B98401C0B9000BF06E0F1
:1026D0000B9810F8011B0B903046FFF788FF00BFE6
:1026E00080213046FFF7B6FE0028F9D00B9800781D
:1026F000002887D106B070BC5DF814FB00BFFEE770
:102700000FB4054B10B503A9044A029800F0EEF887
:1027100010BC5DF814FB0000FD2F00084C000020E9
:102720000FB4084B10B504A902AA039800F0DEF814
:10273000044602A9002000F05CFC204610BC5DF8B5
:1027400014FB0000F32F000802E008C8121F08C1A4
:10275000002AFAD170477047002001E001C1121F22
:10276000002AFBD1704700002DE9FF5F82B00021F5
:10277000DDE90430020DDDF840B0034318D044F623
:102780001050A2F2FF3242431514119801281FD0B5
:10279000A5EB0B00401C5FEA000A4FF000064E4F0D
:1027A000DFF83891B046504615D5CAF1000413E061
:1027B000119801244AA3012801D16FEA0B01029864
:1027C000119AC0E90031C0E9024206B0BDE8F09FAD
:1027D000CBF10000DFE704460021404A491842EBF4
:1027E0000450CDE9001012E0E00707D032463B4626
:1027F00040464946FDF7CAFE8046894632463B467A
:1028000010461946FDF7C2FE06460F466410002C1E
:10281000EAD1DDE90401DDE90023BAF1000F06DAAF
:10282000FDF7B4FE42464B46FDF7B0FE05E0FDF76E
:102830001FFF42464B46FDF71BFF04460E46002293
:10284000284BFDF79DFF03D84FF0FF30014607E00E
:102850000022254B20463146FDF7F1FDFDF777FFBD
:10286000102409E0002C0ADB0A220023FDF77FFD7B
:10287000039B30321A55641E50EA0102F2D1641CE7
:10288000039AC4F111031444119A012A03D00122BE
:1028900008430DD10AE0084304D000204FF0110B8B
:1028A000119072E7A3EB0B056D1E0DE05B4504DD97
:1028B0004FF0000205F1010504E003DA4FF00002D9
:1028C000A5F10105002AECD002981199C0E9023166
:1028D000C0E9004579E70000000014400000F03F27
:1028E000300000000000F0430000E03F2DE9FF4F02
:1028F00095B09A46884606460025EEE1252877D110
:1029000000242746F94A0121039400E0044316F805
:10291000013F203B01FA03F01042F7D130782A281A
:1029200011D06FF02F033078A0F13002092A16D8A9
:10293000039A44F0020402EB820203EB42021044C9
:10294000761C0390EFE758F8042B0392002A03DA71
:10295000504244F40054039044F00204761C307852
:102960002E2816D116F8010F44F004042A280DD0A1
:102970006FF02F023078A0F13003092B09D807EB54
:10298000870302EB4303C718761CF3E758F8047B70
:10299000761C30786C280FD006DC4C2817D06828BD
:1029A0000DD06A2814D104E0742810D07A280FD1F1
:1029B0000DE044F400140AE044F4801401E044F40F
:1029C00040147278824202D104F58014761C761C81
:1029D000307866280BD013DC582877D009DC002823
:1029E00075D04528F6D04628F4D047281AD193E16F
:1029F00018E0632835D0642879D0652812D18BE19E
:102A0000702873D008DC6728F1D069286FD06E2851
:102A10000DD06F2806D1ACE073282CD0752874D067
:102A2000782853D05246179990476D1C54E1C4F34F
:102A30000250022809D003280DD0D8F8001004282D
:102A40000DD00D6008F1040846E1D8F80010EA172F
:102A5000C1E90052F6E7D8F800100D80F2E70D70DA
:102A6000F0E718F8041B8DF8001000208DF8010025
:102A7000EB46012003E058F804BB4FF0FF3061073C
:102A80004FF0000102D40DE009F101018946B9427D
:102A90000FDA8145F8DB1BF809100029F4D108E0B2
:102AA00009F1010189468142FADB1BF8091000296E
:102AB000F6D103985346A0EB090721463846179AEA
:102AC00000F080FA284400EB090507E044E008E143
:102AD0000DE01BF8010B524617999047B9F1010917
:102AE000F7D2534621463846179AF2E039E00A21D8
:102AF000C4F302524FF0000B0091022A06D058F89E
:102B0000040BC117032A09D00AE023E008F10700EB
:102B100020F00702F2E80201904605E000B2C1177A
:102B2000042A01D140B2C117002906DA0A46002161
:102B3000404261EB02012D2202E0220504D52B2246
:102B40008DF80420012203E0E20701D02022F7E7FC
:102B5000914657E00A2100E010214FF0000B009150
:102B60000BE010214FF0000B44F004040827009103
:102B700003E008204FF0000B0090C4F30252022A39
:102B800005D058F8040B0021032A08D008E008F10A
:102B9000070020F00702F2E80201904603E080B24D
:102BA000042A00D1C0B24FF0000922072AD532789A
:102BB000702A07D0DDF800C08CF0100C5CEA0B0C1A
:102BC00005D00EE040228DF80420012208E050EAF2
:102BD000010306D030238DF804308DF80520022241
:102BE0009146009B83F0080353EA0B030AD150EA95
:102BF000010201D1620705D530228DF804204FF083
:102C000001097F1E3278582A04D039A20C920CAAEE
:102C100002920BE03BA2F9E75B46009AFDF7A7FBA7
:102C20000C9B9B5C029A521E0292137050EA0102A6
:102C3000F2D1029804A9081A00F1200B600702D50E
:102C400024F4803400E001275F4502DDA7EB0B0090
:102C500000E0002000EB0B01009003984944401A6B
:102C60000390E00306D453462146179A039800F0D8
:102C7000A9F90544002706E001A85246C05D17994E
:102C800090476D1C7F1C4F45F6DBE0030CD5534687
:102C90002146179A039800F095F9054404E0302086
:102CA0005246179990476D1C0099481E00900029C4
:102CB000F5DC08E00298029952460078491C02911E
:102CC000179990476D1CBBF10001ABF1010BF1DCD2
:102CD0005BE100F065F90544761C307800287FF44C
:102CE0000DAE19B02846BDE8F08F0000092801009C
:102CF0003031323334353637383961626364656672
:102D00000000000030313233343536373839414233
:102D10004344454600000000600700D4062708F140
:102D2000070020F00700F0E80223804603F0004C83
:102D30005FEA0C0001D097A009E0200501D596A01C
:102D400005E0E00701D095A001E0AFF24C00139040
:102D5000307823F0004365280CD006DC452809D0E4
:102D600046281DD047287FD13BE0662818D0672829
:102D70007AD136E00021112F01DB112000E0781C10
:102D8000CDE9000104A90CA8FFF7EEFCDDE90D0177
:102D90000C9A4FF0000B07F10109109200914EE0E0
:102DA0004FF000400097CDE9011004A90CA8FFF7EF
:102DB000DBFCDDE90D020C9B0F994FF0000B9146F7
:102DC0001093009211B9791C00EB0109B7EB0900CF
:102DD00003D4C0F1FF3B07F10109A9EB0700019003
:102DE00042E0012F00DA01270021112F01DD11201F
:102DF00000E03846CDE9000104A90CA8FFF7B4FCB7
:102E0000DDE90D010C9A00914FF0000BB9461092CC
:102E100021070FD4009A4A4503DA914601E0A9F14F
:102E20000109B9F1010F05DD109AA9F10101515C09
:102E30003029F4D0B84202DA10F1040F03DA01218C
:102E4000CDE9011010E0002803DC8344A9EB000168
:102E500002E0411C494500DD8946A0EB0B00401C07
:102E600001904FF000400290200705D4019848459A
:102E700002DB4FF0FF30019000208DF84B000298EC
:102E80000DF14B07B0F1004F25D002200C902B2004
:102E90000D90029800280CDA404202902D200D90EF
:102EA00007E00A210298FDF74CFA3031029007F84A
:102EB000011D0C99481E0C900029F2DC0298002894
:102EC000EFD1791E0D980870307800F0200040F0A6
:102ED000450007F8020D11A8C01BC01D02901398F1
:102EE000007800B1012000EB0901019801EBE071CD
:102EF000029801440398401A401E0390E00306D450
:102F000053462146179A039800F05CF8054413983D
:102F1000007818B15246179990476D1CE00323D5ED
:102F200053462146179A039800F04CF805441BE0DD
:102F3000BBF1000F07DB0098584504DD1098179986
:102F400010F80B0001E01799302052469047019885
:102F50000BF1010B401E05F10105019004D12E205B
:102F60005246179990476D1CB9F10001A9F101096A
:102F7000DEDC05E017F8010B5246179990476D1CEF
:102F80000299481E02900029F4DC53462146179A04
:102F900003989EE62D0000002B000000200000009A
:102FA0002DE9F041044600251E461746880404D446
:102FB00005E039462020B0476D1C641EF9D528462F
:102FC000BDE8F0812DE9F041044600251E469046FB
:102FD000C80301D5302700E02027880404D505E088
:102FE00041463846B0476D1C641EF9D52846BDE8F9
:102FF000F0810A68531C0B601070704770B504466E
:103000000D46E1B20548FFF7F2FA00BF8021034800
:10301000FFF720FA0028F9D0204670BD00380140A3
:10302000F0B503460D461646002729460A2E03D062
:10303000002008702846F0BD33B9302001F8010B9C
:10304000002008702846F6E7002B03DA2D2001F84F
:10305000010B5B4242F210720DE093FBF2F404B9F3
:1030600037B104F1300001F8010B04FB12330127E2
:103070000A2092FBF0F2002AEFDC002008702846BC
:10308000D9E7FFF75BF8FFF797F9FDF773FEFEF757
:103090000BF8FEF7E3F9FDF785FCFEF78DFF0DE079
:1030A000FDF748FFFFF7C4F8FEF7C0FDFEF720FE6E
:1030B0004CF25030FDF728FDFEF778FBF0E70146B3
:1030C000E020087000204870022070470146C87850
:1030D0007047014608780009704770B504460E46EF
:1030E0003046FDF779F805462946204600F00FF8EE
:1030F0002A4631462068FDF739F8206828442060C8
:1031000070BD026811700268521C0260704710B5F1
:103110000A46CB1701EB13631B0A0468237002688D
:10312000521C02600A46CB1701EB13631B12A1EB82
:103130000323046823700268521C026010BD1FB58F
:103140000446029800280DDD20460299FFF7DFFFB4
:10315000DDE902212068FDF709F82068029908449A
:1031600020600AE0019820B120460199FFF7B5FFE1
:1031700003E000212046FFF7CAFF1FBD7B227465D4
:103180006D7065726174757265223A20252E326603
:103190002C2268756D6964697479223A20252E3174
:1031A000662C22636F32223A20252E31662C227043
:1031B0006D3130223A2025642C22706D3235223A4E
:1031C0002025642C226863686F223A20252E316600
:1031D0002C22746167223A2025647D00FC310008AE
:1031E0000000002050000000482700084C32000872
:1031F00050000020381B00005827000800A24A0495
:103200000000000000000000010203040607080996
:10321000000000000102030401020304060708097C
:10322000020406080000000000000000000000008A
:10323000000000000000000000000000000000008E
:0C32400000000000000000000000000082
:0400000508000131BD
:00000001FF
