:020000040800F2
:10000000F033002045010008191000081D0D0008FC
:100010001510000801020008051A00080000000081
:10002000000000000000000000000000ED120008C9
:100030008D02000800000000DD1000083D140008DB
:100040005F0100085F0100085F0100085F01000810
:100050005F0100085F0100085D0A00085F010008F9
:100060005F0100085F0100085F0100085F010008F0
:100070005F0100085F0100085F0100085F010008E0
:100080005F0100085F0100085F0100085F010008D0
:100090005F0100085F0100085F0100085F010008C0
:1000A0005F0100085F0100085F0100085F010008B0
:1000B0005F0100085F0100085F0100085F010008A0
:1000C0005F0100085F0100085F0100085F01000890
:1000D0005F01000879150008F515000809160008E9
:1000E0005F0100085F0100085F0100085F01000870
:1000F0005F0100085F0100085F0100085F01000860
:100100005F0100085F0100085F0100085F0100084F
:100110005F0100085F0100085F0100085F0100083F
:100120005F0100085F0100085F0100085F0100082F
:10013000DFF80CD000F052F800480047431E0008DA
:10014000F03300200648804706480047FEE7FEE7F8
:10015000FEE7FEE7FEE7FEE7FEE7FEE7FEE7FEE777
:10016000C114000831010008D2B201E000F8012BEF
:10017000491EFBD270470022F6E710B513460A4627
:1001800004461946FFF7F0FF204610BD30B505467E
:100190002A460B4612F8010B13F8014B08B1A04296
:1001A000F8D01CB1002802D06D1CF1E7284630BD04
:1001B00030B50B46014600202022012409E021FA37
:1001C00002F59D4205D303FA02F5491B04FA02F534
:1001D0002844151EA2F10102F1DC30BD064C074D8A
:1001E00006E0E06840F0010394E807009847103407
:1001F000AC42F6D3FFF7A0FFC8270008E8270008A5
:1002000000BFFEE70748006840F0807005490860BD
:100210000020054948600846006840F00100086079
:1002200070470000FCED00E0001000E0014840686D
:1002300070470000001000E031B50024FFF7E2FF36
:10024000104800681049B0FBF1F0009900FB01F57F
:1002500000BFFFF7EBFF034611E0FFF7E7FF0246A1
:100260009A420CD09A4202D9D01A044403E0C3F156
:10027000FF30104404441346AC4200D300E0ECE7E6
:1002800000BF38BD0000002040420F00704710B58D
:1002900004464FF47A7104FB01F0FFF7CDFF10BD67
:1002A00001B50849009808604FF0E020006940F06F
:1002B00001004FF0E021086100BF024800680028FB
:1002C000FBD108BD6800002010B500244FF4804128
:1002D0000C4800F021FD4FF4FA60FFF7D8FF0CE066
:1002E0004FF4FA73002208A108A000F011F800B141
:1002F00010BD00F0D9F9601CC4B20A2CF0DB00BFBD
:10030000F6E70000002001404F4B00004154000080
:100310002DE9F04106460C4615461F462D48B0F81B
:1003200000046FF30E002B49A1F8000432462AA105
:100330002B4801F0E4FA1CB915B90120BDE8F081A1
:100340003846FFF7A4FF00202249B1F80014C1F39A
:100350000E01204A5054114622A001F055FB1D48C1
:10036000B0F800046FF30E001A49A1F80004084623
:10037000B0F8000420F40040A1F80004B4B1ADB11D
:1003800021461448FFF702FF08B1012000E00020D9
:1003900040B929460F48FFF7F9FE08B1012000E0F7
:1003A000002008B10120C9E70020C7E744B1214679
:1003B0000848FFF7EBFE08B10120BFE70020BDE7CA
:1003C00029460448FFF7E2FE08B10120B6E7002005
:1003D000B4E700008810002025730D0A000000001B
:1003E000004800402573000010B586B004460CB1EB
:1003F000012000E00020024606A101A801F014FB44
:100400004FF4FA73002207A101A8FFF781FF06B09D
:1004100010BD000041542B4349504D55583D2564B3
:10042000000000004F4B000010B54FF47A70FFF74A
:100430002EFF04A1044801F062FA4FF4FA70FFF7AE
:1004400026FF10BD2B2B2B000048004008B50121D2
:10045000080200F055FE4FF40050ADF800001020E7
:100460008DF8030003208DF802006946074800F06C
:10047000BDFB0121080200F043FE4FF48040ADF8BF
:1004800000006946014800F0B1FB08BD00200140B2
:1004900010B54FF4FA7300220DA10EA0FFF738FF3C
:1004A000A0B110A11248FFF771FE08B1022010BDE3
:1004B00010A10F48FFF76AFE08B10320F7E710A16B
:1004C0000B48FFF763FE08B10420F0E70020EEE7D9
:1004D0004F4B000041542B43495053544154555302
:1004E000000000005354415455533A320D0A0000A5
:1004F000881000205354415455533A330D0A0000DC
:100500005354415455533A340D0A000010B5FFF7C7
:100510009DFF00F01BFA4FF48041044800F0FCFB03
:100520004FF40051014800F0F5FB10BD00200140E0
:1005300030B59FB004460D462B46224606A101A8C1
:1005400001F072FA41F28833002208A101A8FFF7F6
:10055000DFFE1FB030BD000041542B43574A4150CD
:100560003D222573222C2225732200004F4B0000D0
:10057000F0B5B9B006460F4614461D46642120A8C2
:10058000FFF7F9FD16B1012E10D107E03B4614A28A
:1005900014A120A8009401F047FA08E03B4615A2F8
:1005A00010A120A8009401F03FFA00E000BF00BFB6
:1005B000052D06DA20AB2A460FA102A801F034FA75
:1005C00004E020AA11A102A801F02EFA4FF47A63E8
:1005D00012A216A102A8FFF79BFE39B0F0BD0000E1
:1005E00054435000222573222C222573222C25737C
:1005F000000000005544500041542B4349505354CF
:100600004152543D25642C257300000041542B4376
:10061000495053544152543D25730000414C5245BA
:10062000415920434F4E4E45435400004F4B00006C
:1006300010B5044624B1012C0AD0022C18D10FE0C9
:1006400040F6C4130BA20EA10EA0FFF761FE10BD71
:1006500040F6C41307A20AA10DA0FFF759FEF6E762
:1006600040F6C41303A206A10CA0FFF751FEEEE76B
:100670000020ECE76E6F206368616E676500000024
:100680004F4B000041542B43574D4F44453D3100E3
:1006900041542B43574D4F44453D320041542B4369
:1006A000574D4F44453D330010B54FF48041064847
:1006B00000F030FB4FF4FA70FFF7E9FD4FF4804192
:1006C000014800F029FB10BD0020014010B546484C
:1006D000B0F800040121B1EBD03F28D1424800F02E
:1006E000E1F900240DE000BF4021404801F036F858
:1006F0000028F9D03C48015D3C4801F0FCF8601C42
:1007000084B23948B0F80004C0F30E00A042EADC1D
:100710003548B0F800046FF30E003349A1F8000427
:100720000846B0F8000420F40040A1F80004304866
:10073000B0F80004C00B40B32D4800F0B3F900241A
:100740000DE000BF40212B4801F008F80028F9D047
:100750002748015D274801F0CEF8601C84B2244888
:10076000B0F80004C0F30E00A042EADC2048B0F864
:1007700000046FF30E001E49A1F800040846B0F80B
:10078000000420F40040A1F800041B480078002871
:1007900029D0FFF749FE00BFFFF77AFE174908701E
:1007A000084600780028F7D008460078042815D1BC
:1007B00013A001F029F900BF19A11CA0FFF7B8FE92
:1007C0000028F9D000BF05231CA21EA10020FFF7BE
:1007D000CFFE0028F7D01FA001F016F900BF00F0EF
:1007E00017F90028FBD010BD8A14002000480040F3
:1007F0008810002000380140740000207C00002098
:100800000D0AD5FDD4DAD6D8C1ACC8C8B5E3BACD87
:10081000B7FECEF1C6F7202E2E2E2E2E2E0D0A005C
:100820004A496469616E3130303100004C48435FA1
:10083000576972656C65737300000000383038309A
:10084000000000003139322E3136382E302E313052
:10085000310000000D0AD6D8C1ACC8C8B5E3BACD86
:10086000B7FECEF1C6F7B3C9B9A60D0A0000000065
:1008700010B516A001F0C8F84FF400511A4800F066
:100880004BFAFFF721FD0020FFF7D2FE00BF17A1B2
:1008900019A0FFF74DFE0028F9D00020FFF7A4FDB6
:1008A00000BF052318A21AA10020FFF761FE00284F
:1008B000F7D000BF00F0ACF80028FBD018A001F082
:1008C000A3F81DA001F0A0F810BD00000D0AD5FD91
:1008D000D4DAC5E4D6C32045535038323636202EFC
:1008E0002E2E2E2E2E0D0A00002001404A4964694A
:1008F000616E3130303100004C48435F576972659A
:100900006C65737300000000383038300000000060
:100910003139322E3136382E302E31303100000050
:100920000D0AC5E4D6C3204553503832363620CDA3
:10093000EAB1CF0D0A0000000D0ABFAACABCCDB8AB
:10094000B4AB2E2E2E2E2E2E0D0A000000B585B033
:100950000121880400F0C4FB0121082000F0D0FB35
:100960004FF48060ADF8100018208DF813000320BC
:100970008DF8120004A91A4800F038F94FF400600D
:10098000ADF8100004208DF8130004A9144800F0FD
:100990002DF94FF4E13000900020ADF80400ADF8DF
:1009A0000600ADF80800ADF80C000C20ADF80A0008
:1009B00069460C4800F02EFF012240F225510948FB
:1009C00000F003FF012240F22441064800F0FDFE42
:1009D00000F00AF80121034800F066FE05B000BDF2
:1009E000000C01400048004008B54FF4A06000F042
:1009F0005FFB27208DF8000000208DF801008DF8A6
:100A0000020001208DF80300684600F019FB08BDC4
:100A100010B54FF4FA73002207A108A0FFF778FC85
:100A200008B9002010BD4FF4FA7308A202A108A073
:100A3000FFF76EFCF6E700004F4B000041542B43DC
:100A400049504D4F44453D31000000003E0000003C
:100A500041542B43495053454E44000010B50120EA
:100A600000F00CF810B1012000F002F810BD0000F9
:100A7000014908607047000014040140014600204D
:100A80000022074B1B6803EA0102054B14331B6865
:100A90000B4013B10AB1012000E0002070470000B4
:100AA0000004014010B5044636A12046FFF76EFB56
:100AB000374908600846006820B10421354800F035
:100AC0002BF90CE034A12046FFF760FB30490860A9
:100AD0000846006818B104212E4800F01BF931A126
:100AE0002046FFF753FB2A4908600846006820B1FA
:100AF0000821284800F010F90CE02DA12046FFF74E
:100B000045FB234908600846006818B108212148C0
:100B100000F000F929A12046FFF738FB1C490860C6
:100B20000846006820B110211A4800F0F5F80CE0E2
:100B300025A12046FFF72AFB1549086008460068F2
:100B400018B11021134800F0E5F822A12046FFF764
:100B50001DFB0F4908600846006820B120210D48A0
:100B600000F0DAF80CE01EA12046FFF70FFB084961
:100B700008600846006818B12021064800F0CAF84D
:100B800010BD000052454C415930312C4F4E0000F1
:100B9000780000200010014052454C415930312C62
:100BA0004F46460052454C415930322C4F4E0000C2
:100BB00052454C415930322C4F46460052454C412B
:100BC0005930332C4F4E000052454C415930332C94
:100BD0004F46460052454C415930342C4F4E000090
:100BE00052454C415930342C4F4646002DE9F041D6
:100BF000024600250026002000230024002791F84B
:100C000003C00CF00F0591F803C00CF0100CBCF100
:100C1000000F03D091F802C04CEA050591F800C01E
:100C2000BCF1000F31D0146800202BE04FF0010C14
:100C30000CFA00F3B1F800C00CEA03069E4220D182
:100C400083004FF00F0C0CFA03F7BC4305FA03FCCA
:100C50004CEA040491F803C0BCF1280F06D14FF010
:100C6000010C0CFA00FCC2F814C00AE091F803C0B1
:100C7000BCF1480F05D14FF0010C0CFA00FCC2F892
:100C800010C0401C0828D1D31460B1F800C0BCF1DA
:100C9000FF0F34DD546800202EE000F1080C4FF007
:100CA000010808FA0CF3B1F800C00CEA03069E42F2
:100CB00021D183004FF00F0C0CFA03F7BC4305FA67
:100CC00003FC4CEA040491F803C0BCF1280F05D1E1
:100CD00000F1080C08FA0CF8C2F8148091F803C06F
:100CE000BCF1480F07D100F1080C4FF0010808FAD9
:100CF0000CF8C2F81080401C0828CED35460BDE820
:100D0000F08102460020D3680B400BB1012000E0C7
:100D100000207047416170470161704700BFFEE7E6
:100D200010B500200F4908600F48006820F00F0040
:100D30000D4908600846006840F007000860002080
:100D40000A49C1F8A0010220FFF776FA01200549FF
:100D500008600220FFF770FA00200449C1F89C01E6
:100D600010BD00009C812142040C01400080214202
:100D700008B50121082000F0C3F94FF4C070ADF8A8
:100D8000000010208DF8030003208DF80200694652
:100D90000448FFF72BFF0120034908600349C1F80D
:100DA000A00108BD000C01409C812142008021422D
:100DB00010B500200F4908600F48006820F00F00B0
:100DC0000D4908600846006840F0070008600120EF
:100DD0000A49C1F8A0010220FFF72EFA01200549B7
:100DE00008600220FFF728FA00200449C1F89C019E
:100DF00010BD00009C812142040C01400080214272
:100E000070B5054600241748006820F00F0015490A
:100E100008600846006840F004000860002616E0FC
:100E20000020114908600220FFF706FA01200F494F
:100E3000C1F89C016006040E0B487C38006808B1BC
:100E4000601CC4B20120FFF7F7F9701CC6B2082E6F
:100E5000E6DB15B9FFF7ACFF01E0FFF761FF2046C5
:100E600070BD0000040C01409C81214200802142A1
:100E700070B504461548006820F00F00134908605B
:100E80000846006840F0070008600020104908602C
:100E9000002517E0E0090E49091D08606006040EF0
:100EA0000220FFF7C9F901200A49C1F89C0102207C
:100EB000FFF7C2F90020064908600220FFF7BCF9DD
:100EC000681CC5B2082DE5DB70BD0000040C0140B4
:100ED0009C8121420080214210B50F48006820F01B
:100EE0000F000D4908600846006840F007000860E0
:100EF00001200A4908600A49C1F89C010420FFF753
:100F00009BF90020054908600420FFF795F90020AF
:100F10000349C1F89C0110BD040C0140A08121428D
:100F20000080214210B50F48006820F00F000D49E5
:100F300008600846006840F00700086000200A4981
:100F400008600A49C1F8A0010420FFF775F90120E3
:100F5000054908600549C1F8A0010420FFF76CF9B4
:100F600010BD0000040C01409C8121420080214200
:100F700010B500241448006820F00F0012490860E2
:100F80000846006840F00400086001200F4908602E
:100F9000FFF752F901200E49C1F89C01FFF74CF907
:100FA00007E0601CC4B2FA2C03DDFFF7BBFF012091
:100FB00010BD0648803800680028F2D10349091F97
:100FC000086000BFF4E70000040C0140A08121424A
:100FD0000080214208B50121082000F091F820206E
:100FE000ADF8000010208DF8030003208DF80200FA
:100FF00069460248FFF7FAFD08BD0000000C0140F9
:1010000010B5FFF7E7FF20210148FFF785FE10BD6F
:10101000000C014000BFFEE7704708B54FF4A06028
:1010200000F046F825208DF8000001208DF8010021
:101030008DF802008DF80300684600F001F808BD45
:1010400070B5002100230F22C47804B3154C246826
:1010500004F4E064C4F5E064210AC1F10403CA4069
:10106000447804FA03F184781440214309010E4CBA
:101070000678A155047804F01F050124AC400578DA
:101080006D11AD0005F1E025C5F8004109E00478D7
:1010900004F01F050124AC40044D0678761145F894
:1010A000264070BD0CED00E000E400E080E100E0CF
:1010B00002490143024A1160704700000000FA052E
:1010C0000CED00E00248034908600348486070479F
:1010D000000070425C0000200000BE42704700002B
:1010E00029B1064AD2690243044BDA6104E0034A9B
:1010F000D2698243014BDA61704700000010024060
:1011000029B1064A92690243044B9A6104E0034AFA
:1011100092698243014B9A617047000000100240BF
:1011200030B500210022002400232D4D6D6805F00C
:101130000C0121B1042905D0082923D105E0294D4E
:10114000056022E0274D05601FE0254D6D6805F420
:101150007012234D6D6805F48034022505EB924230
:101160001CB9214D554305600BE01D4D6D6805F41C
:1011700000351DB11C4D5543056002E0194D554326
:10118000056002E0174D056000BF00BF144D6D689B
:1011900005F0F0010909154D6B5C0568DD404560FF
:1011A0000F4D6D6805F4E061090A104D6B5C4568F0
:1011B000DD4085600A4D6D6805F46051C90A0B4D2C
:1011C0006B5C4568DD40C560054D6D6805F44041C8
:1011D000890B074D6B5CC568B5FBF3F5056130BD48
:1011E0000010024000127A0000093D0014000020A7
:1011F000240000203EB530483049086000203049C6
:1012000008604FF4FA702F49086000243DE000BFE9
:101210002D4800680128FBD02C49072000F078FEFB
:101220002A4800788007800B2849497840EA012045
:10123000264989780843264941F824002348C07884
:101240008007800B2149097940EA01201F4949792B
:101250000843204941F824001D4850F8240017494C
:101260000968884204D21A4850F8240013490860DB
:10127000174850F8240012490968884204D91448D4
:1012800050F824000E490860641C0E48006884422F
:10129000BDDB0F4850F824000F4908600F48104983
:1012A000104A114BCDE900210290094A0548016816
:1012B000084800F0DDFE3EBDFFFF03003C000020BB
:1012C00040000020280000202481214251000020FD
:1012D0005408002084000020440000203800002032
:1012E00034000020300000202C0000207047000057
:1012F00030B5A1B00024802101A8FEF73CFF0025F5
:1013000011480078401C10490870084600781428DD
:1013100017DB0E480078A0B900BF0DE000BF4021E8
:101320000B4800F01BFA0028F9D001A8015D08481D
:1013300000F0E1FA601CC4B2AC42EFDB00200249CD
:10134000087021B030BD000066000020740000204D
:101350000048004010B500F001F810BD0CB50020A9
:10136000019000903348006840F4803031490860B3
:1013700000BF3048006800F4003000900198401C25
:101380000190009818B90198B0F5A06FF1D12948E3
:10139000006800F4003010B10120009001E000204E
:1013A00000900098012843D12348006840F01000C5
:1013B000214908600846006820F0030008600846DC
:1013C000006840F0020008601A4840681949486007
:1013D0000846406848600846406840F480604860BD
:1013E0000846406820F47C1048600846406840F495
:1013F000E81048600846006840F08070086000BF50
:101400000C48006800F000700028F9D009484068D6
:1014100020F00300074948600846406840F0020099
:10142000486000BF0348406800F00C000828F9D16C
:101430000CBD0000001002400020024010B500F07A
:101440006FF810BD30B51A4800681A4AB0FBF2F1C7
:10145000B1F1807F01D301201DE021F07F40401ECB
:101460004FF0E022506150170F22002807DA1307CF
:101470001D0E114B00F00F04241F1D5503E0130730
:101480001C0E0E4B1C5400BF00204FF0E022906158
:1014900007201061002008B100BFFEE74FF0E020F8
:1014A000006920F001004FF0E021086130BD00002C
:1014B0000000002040420F0018ED00E000E400E0D2
:1014C00010B51348006840F0010011490860084653
:1014D0004068104908400E494860084600680E49B7
:1014E00008400B4908600846006820F48020086026
:1014F0000846406820F4FE0048604FF41F008860F2
:10150000FFF728FF4FF000600449086010BD00009D
:10151000001002400000FFF8FFFFF6FE08ED00E0BB
:101520000448006820B103480068401E0149086073
:10153000704700006800002010B50D480078401C7E
:101540000B490870084600780A2810DB202109485A
:10155000FFF7D7FB20B120210648FFF7DBFB03E0B4
:1015600020210448FFF7D8FB00200149087010BD76
:1015700064000020000C014010B540F225511B48CA
:1015800000F0F9F8D8B1194800F0B0F9C4B2184821
:10159000B0F80004C0F30E0040F2FF3188420EDACA
:1015A0001349B1F80014C1F30E00411C104AB2F8FF
:1015B000002461F30E020E49A1F800240C5440F2FD
:1015C00024410A4800F0D7F801280DD10848B0F8A6
:1015D000000420F4004000F500400549A1F8000493
:1015E000024800F083F9C4B210BD00000038014089
:1015F0008A14002010B540F22551024800F0BBF8D3
:1016000010BD00000044004010B540F225512048B4
:1016100000F0B1F8D8B11E4800F068F9C4B21D4816
:10162000B0F80004C0F30E0040F2FF3188420EDA39
:101630001849B1F80014C1F30E00411C154AB2F864
:10164000002461F30E021349A1F800240C5440F267
:1016500024410F4800F08FF8012817D10D48B0F849
:10166000000420F4004000F500400A49A1F80004FD
:10167000074800F03BF9C4B207A10648FEF786FD13
:1016800008B1012000E000200649087010BD0000EC
:101690000048004088100020434C4F5345440D0A39
:1016A000000000007400002021B1828942F4005241
:1016B000828104E082894DF6FF731A40828170476F
:1016C00000B585B001210420FFF71AFD0121880330
:1016D000FFF716FD4FF40070ADF8100018208DF8DC
:1016E000130003208DF8120004A91A48FFF77EFAB0
:1016F0004FF48060ADF8100004208DF8130004A9A9
:101700001448FFF773FA4FF4E13000900020ADF871
:101710000400ADF80600ADF80800ADF80C000C2090
:10172000ADF80A0069460C4800F074F8FFF775FC44
:10173000012240F22551084800F047F8012240F20A
:101740002441054800F041F801210348FFF7ACFFB0
:1017500005B000BD000801400038014002460020ED
:10176000B1F5007F00D100BF13880B400BB1012001
:1017700000E00020704770B50246002400230025D9
:10178000002040F66A16B14200D100BFC1F34215F5
:1017900001F01F03012606FA03F3012D02D19689F9
:1017A000334006E0022D02D1168A334001E0968ACA
:1017B00033400C12012606FA04F41688344013B1A3
:1017C0000CB1012000E0002070BDF0B503460024FC
:1017D00000260025002040F66A17B94200D100BF5C
:1017E0001846C1F3421401F01F06012707FA06F557
:1017F000012C01D10C3004E0022C01D1103000E0AA
:1018000014301AB107682F43076002E00768AF433E
:101810000760F0BD2DE9F04786B005460E4600246E
:10182000A24600BFA1460027B08900B100BF2F46E5
:101830002C8A4CF6FF700440F08804432C82AC895B
:101840004EF6F3100440B08831890843718908438B
:101850000443AC81AC8A4FF6FF400440B089044396
:10186000AC8201A8FFF75CFC1F48874202D1DDF87B
:1018700010A001E0DDF80CA0A88900F4004040B100
:101880000AEBCA0000EB0A1031684900B0FBF1F81E
:1018900007E00AEBCA0000EB0A1031688900B0FBD0
:1018A000F1F86420B8FBF0F004012009642101FB89
:1018B0001089A88900F4004040B1322000EBC90033
:1018C000B0FBF1F000F00700044308E0322000EB29
:1018D00009106421B0FBF1F000F00F0004432C81EB
:1018E00006B0BDE8F0870000003801400146888856
:1018F000C0F308007047C1F30802828070470FB43C
:1019000070B586B006460CA8019073E00B9800787D
:101910005C281CD10B98401C0B9000786E2809D0D5
:1019200072280FD10D213046FFF7E5FF0B98401CC0
:101930000B900BE00A213046FFF7DDFF0B98401CAF
:101940000B9003E00B98401C0B9000BF4BE00B98F2
:101950000078252840D10B98401C0B900078642813
:1019600018D0732833D1019810C801900BE021786A
:101970003046FFF7C0FF00BF80213046FFF7EEFE84
:101980000028F9D0641C20780028F0D10B98401C66
:101990000B9020E0019820C801900A2202A9284655
:1019A00000F01EFA02AC0BE021783046FFF7A3FFEF
:1019B00000BF80213046FFF7D1FE0028F9D0641C1B
:1019C00020780028F0D10B98401C0B9003E00B9876
:1019D000401C0B9000BF06E00B9810F8011B0B9009
:1019E0003046FFF788FF00BF80213046FFF7B6FE84
:1019F0000028F9D00B980078002887D106B070BC79
:101A00005DF814FB00BFFEE70FB4054B10B503A94A
:101A1000044A029800F02CF810BC5DF814FB00009A
:101A2000BD1D0008800000200FB4084B10B504A9AC
:101A300002AA039800F01CF8044602A9002000F056
:101A4000B8F9204610BC5DF814FB0000B31D000877
:101A500002E008C8121F08C1002AFAD17047704777
:101A6000002001E001C1121F002AFBD170470000D5
:101A70002DE9FF4F8BB088460546002606E0252855
:101A80000BD0DDE90D1290476D1C761C28780028DC
:101A9000F5D10FB03046BDE8F08F0024A146A24634
:101AA0000122AE4900E0044315F8013F203B02FA51
:101AB00003F00842F7D128782A2810D06FF02F02BF
:101AC0002878A0F13001092915D809EB890102EB2A
:101AD000410144F0020400EB01096D1CF0E758F8E5
:101AE000041B5FEA010903D544F40054C9F100095D
:101AF00044F002046D1C28782E2817D115F8010F28
:101B000044F004042A280ED06FF02F022878A0F1A8
:101B1000300109290AD80AEB8A0102EB410100EBE6
:101B2000010A6D1CF2E758F804AB6D1C28786C288C
:101B30000FD006DC4C2817D068280DD06A2814D1A5
:101B400004E0742810D07A280FD10DE044F400147A
:101B50000AE044F4801401E044F4401469788142BE
:101B600002D104F580146D1C6D1C2878692865D09D
:101B700006DC00288DD0632827D0642806D15DE0DC
:101B80006E2808D073282AD0752877D0DDE90D1289
:101B90009047761CE0E0C4F30250022809D00328E5
:101BA0000DD0D8F8001004280DD00E6008F10408FC
:101BB000D2E0D8F80010F217C1E90062F6E7D8F8D1
:101BC00000100E80F2E70E70F0E718F8041B8DF895
:101BD000001000208DF80100EB46012003E058F8CA
:101BE00004BB4FF0FF3061074FF0000701D40AE05B
:101BF0007F1C57450DDA8742FADB1BF807100029D6
:101C0000F6D106E07F1C8742FCDB1BF80710002999
:101C1000F8D1DDE90D23A9EB07008146214600F04C
:101C2000B1F83044C61904E0DDE90D121BF8010BD0
:101C300090477F1EF8D22146484688E058F8040BAA
:101C4000C4F302514FF00A0B032900D100B204295A
:101C500000D140B2002802DA40422D2102E02105E5
:101C600005D52B218DF82410012104E006E0E107C1
:101C700010D02021F6E708AF089113E058F8040BC4
:101C8000C4F302514FF00A0B032900D180B204299A
:101C900000D1C0B20021EEE75946FEF789FA303193
:101CA00007F8011D0028F7D1ADEB070000F1200B6C
:101CB000600702D524F4803401E04FF0010ADA45D0
:101CC00002DDAAEB0B0000E00020824600EB0B01D6
:101CD00008980144A9EB01000A90E00306D4DDE96D
:101CE0000D2321460A9800F04DF806444FF00009F4
:101CF00008E009A911F80900DDE90D12904709F182
:101D00000109761C08998945F3DBE0030CD5DDE970
:101D10000D2321460A9800F035F8064404E0DDE979
:101D20000D1230209047761CBAF10001AAF1010A89
:101D3000F5DC05E0DDE90D1217F8010B9047761C84
:101D4000BBF10001ABF1010BF4DC0A982146DDE99F
:101D50000D2300F005F806446D1C97E609280100E4
:101D60002DE9F041044600251E461746880404D498
:101D700005E039462020B0476D1C641EF9D5284681
:101D8000BDE8F0812DE9F041044600251E4690464D
:101D9000C80301D5302700E02027880404D505E0DA
:101DA00041463846B0476D1C641EF9D52846BDE84B
:101DB000F0810A68531C0B601070704770B50446C0
:101DC0000D46E1B20548FFF796FD00BF80210348AC
:101DD000FFF7C4FC0028F9D0204670BD0038014050
:101DE000F0B503460D461646002729460A2E03D0B5
:101DF000002008702846F0BD33B9302001F8010BEF
:101E0000002008702846F6E7002B03DA2D2001F8A1
:101E1000010B5B4242F210720DE093FBF2F404B945
:101E200037B104F1300001F8010B04FB1233012734
:101E30000A2092FBF0F2002AEFDC0020087028460E
:101E4000D9E7FFF7FFFAFFF73BFCFEF75FFBFEF772
:101E50000FFDFFF7D5F800F09BF8FFF7CBF9FFF780
:101E600031F909E0FEF732FCFFF766FB4CF2503027
:101E7000FEF716FAFFF73CFAF4E770B50446FFF7F1
:101E80002BF8AE20FEF7F4FFFFF772F800B119E06F
:101E90002046FEF7EDFFFFF76BF800B112E0FFF709
:101EA0001BF8AF20FEF7E4FFFFF762F800B109E08E
:101EB0000020FEF7A5FF0546FEF77AFFFFF732F890
:101EC000284670BDFFF72EF80020FAE770B50546EA
:101ED0000C46FFF701F8AE20FEF7CAFFFFF748F8FF
:101EE00000B111E02846FEF7C3FFFFF741F800B14B
:101EF0000AE02046FEF7BCFFFFF73AF800B103E026
:101F0000FFF710F8012070BDFFF70CF80020FAE78A
:101F100070B505460C460020FFF7AFFF0120FFF724
:101F2000ACFFFEF7D9FFAE20FEF7A2FFFFF720F8C7
:101F300000B12AE02846FEF79BFFFFF719F800B131
:101F400023E0FEF7C9FFAF20FEF792FFFFF710F87E
:101F500000B11AE00120FEF753FF20700120FEF7C8
:101F60004FFF60700120FEF74BFFA0700120FEF7CD
:101F700047FFE0700120FEF743FF20710020FEF7CD
:101F80003FFF6071FEF7CEFF00BFFEF7CBFF70BDD5
:101F900008B501210820FFF7B3F84FF48040ADF8F1
:101FA000000048208DF8030069461A48FEF71EFE1F
:101FB000FEF7DEFE00F030F8C0210220FFF786FFBA
:101FC00000210320FFF782FF00210420FFF77EFF9E
:101FD00000210520FFF77AFF00210620FFF776FF9A
:101FE0000F210820FFF772FF03210920FFF76EFF82
:101FF00027210A20FFF76AFF24210C20FFF766FF44
:1020000024210D20FFF762FF7F211020FFF75EFFE4
:1020100008BD0000000C014010B540210920FFF769
:1020200055FF40210920FFF751FF10BD2DE9F8476A
:1020300005460C4616461F46DDE90A9ADDF824805F
:102040003B46324621462846CDF8008000F090FA03
:102050004B4632462146284600F0C7FA20685045D4
:1020600001DA206800E050462060BDE8F8870000F3
:102070002DE9FF4FC6B088469946002045900024C0
:1020800006E0469850F82410459808444590641C92
:102090004445F6DB4598B0FBF8F04590002408E095
:1020A000469850F824104598081AFE4941F8240033
:1020B000641C4445F4DB002417E0FA4850F824106F
:1020C0000246601C52F820000144A01C52F8200077
:1020D0000144E01C52F820000F183846F91707EBAE
:1020E0009171891042F82410641CB4F5F87FE4DB88
:1020F00000240AE0EB49601C51F8200051F824103C
:10210000401AE94941F82400641CB4F5F77FF1DD79
:1021100000240EE0E44951F824200B46611C53F8DA
:102120002110501800EBD07149101A4642F82410C3
:10213000641CB4F5F77FEDDB00251BE00020439025
:102140002C460BE0D84850F82410601BD74A32F8D0
:102150001020439801FB12004390641C681D8442C8
:10216000F0DB40F27A41439890FBF1F0CE4941F820
:1021700025006D1CB5F5F47FE0DD002041900024C2
:1021800010E0C94850F82400002803DDC64850F884
:10219000240003E0C44850F8240040424199084418
:1021A0004190641CB4F5F77FEBDD40F2EF114198EC
:1021B00090FBF1F0419005210822419840F2EF1385
:1021C000CDE901210090B84A40A912A8FFF72EFFDF
:1021D000002011904098022821DB01240BE012A876
:1021E00050F82410601E12AA52F82000091A119803
:1021F00008441190641C40988442F0DB4098401ED3
:10220000119991FBF0F0119041F27071119891FBCE
:10221000F0F15498016001215598017005E0A4493E
:1022200054980160002155980170002407E012A81D
:1022300050F82400801C30A941F82400641C409808
:102240008442F4DB00240CE0469850F824009549C1
:1022500041F82400489850F82400964941F8240099
:10226000641C4445F0DB0020429000242DE0012056
:10227000449030A850F824A04FF080703F900AF1AD
:102280000500B0F5F77F1FDC0A3800281CDD054685
:1022900011E0844850F825103F9881420ADA4498AA
:1022A00008B1002044907F4850F825003F9021A8B5
:1022B00040F824506D1C0AF105008542E9DB449882
:1022C00010B94298401C4290641C40988442CEDB76
:1022D0004298022808DA7648C9F80000002153988D
:1022E00001704AB0BDE8F08F00242EE06D4951F82E
:1022F00024200B46611C53F821100A44A11C53F8FA
:1023000021100A44E11C53F821105018C11700EBAA
:10231000917189101A4642F82410664951F8242018
:102320000B46611C53F821100A44A11C53F82110DC
:102330000A44E11C53F821105018C11700EB9171A9
:1023400089101A4642F82410641CB4F5F87FCDDBDE
:10235000002004900026002404E0002005A941F894
:102360002400641C052CF8DB00240DE021A850F8A3
:102370002400B0F5FA7F06DD4D48C9F800000021C1
:1023800053980170ADE7641C42988442EEDB002450
:10239000AFE04FF07F400D900C9021A9601C51F8E8
:1023A000200051F82410401A0A2879DD21A850F89D
:1023B000245016E03B4850F825100C98814204DD6B
:1023C000384850F825000C900A953A4850F82510E6
:1023D0000D98814204DD374850F825000D900B958B
:1023E0006D1C21A9601C51F82000A842E2DC601C91
:1023F00051F820002F4951F8200021A951F824104C
:102400002C4A52F82110401A21A951F824200B9986
:10241000891A4843109021A9601C51F8200051F8F6
:102420002410411A109890FBF1F021A951F82410C2
:10243000204A52F821100844109011460B9851F888
:1024400020101098081A109021A9601C51F8200043
:10245000144951F8200021A951F82410114A52F8CA
:102460002110401A21A951F824200A99891A4843B9
:102470000F9021A9601C51F8200051F82410411A36
:102480000F9890FBF1F021A951F82410054A52F859
:10249000211008440F9011460B9851F820100BE0C2
:1024A00026E000004C2000208C180020D2260008D6
:1024B00019FCFFFF1C2800200F98081A0F900C9998
:1024C00010984843C01103900D990F984843C711C5
:1024D000002F0DDD052E0BDA039848B1039800EBB1
:1024E0008000800090FBF7F005A941F82600761CDB
:1024F000641C4298401EA0423FF74BAF314605A8EE
:1025000000F0ACF8304606EBD0714FEA610BBBF13E
:10251000010F0CDDABF1010105AA52F8211052F8B0
:102520002B20881800EBD0714910049103E005A816
:1025300050F82B000490049802280DDD0498B82868
:102540000ADA09490498085C0E900E98C9F8000050
:1025500001215398017005E00448C9F800000021EA
:102560005398017000BFBCE61027000819FCFFFF5C
:10257000F0B505461C46059E012000270F6030E09F
:1025800052F82070B7422BDD52F820C0471E52F897
:102590002770BC4524DD012300E05B1CC718A7425F
:1025A00007DA52F8207000EB030C52F82CC0674594
:1025B000F3D052F8207000EB030C52F82CC06745A2
:1025C0000CDD0F680F2F09DAD1F800C00CF10107FC
:1025D0000F6045F82C005F1C384402E0184400E00E
:1025E000401C671E8742CBDCF0BD2DE9F04F05464D
:1025F0000C469246984629465046226800F049F813
:102600004FF0FF3621E0D4F800B0701C2060771C3A
:1026100018E055F82710701C10B94FF0FF3001E09A
:1026200055F82600A1EB0009C14503DCC8F1000004
:10263000814506DA55F827102268501C206045F8BD
:1026400022107F1C5F45E4DB761C2068B042DADC98
:102650002846216800F002F8BDE8F08F30B50C463E
:10266000012213E050F82230114605E04D1E50F8CB
:10267000255040F82150491E002904DD4D1E50F818
:1026800025509D42F2DC40F82130521CA242E9DB89
:1026900030BDF0B503461546012217E051F822403F
:1026A000104605E0461E51F8266041F82060401EA5
:1026B000002808DD53F82470461E51F8266053F8B0
:1026C0002660B742EEDC41F82040521CAA42E5DB0E
:1026D000F0BD2900140100021401290000000000CF
:1026E00000000000000000000000000000000000EA
:1026F00000000000000000000000000000000000DA
:1027000000000000000000000000000000000000C9
:102710005F5F5F60606061616161616262626262AD
:102720006363636363636363646464646464646471
:10273000646464646464646464646464636363635D
:10274000636363636262626262626161616160606D
:1027500060605F5F5F5E5E5E5D5D5D5C5C5C5B5BA1
:102760005A5A5959595858575756565555545453FB
:102770005252515150504F4E4E4D4C4C4B4A4A497B
:102780004848474645454443424241403F3E3E3D1E
:102790003C3B3A39383837363534333231302F2EE6
:1027A0002D2C2B2A2928272625242322211F1E1DD4
:1027B0001C1B1A19171615141311100F0E0C0B0AE7
:1027C0000907060503020100E827000800000020B1
:1027D00084000000501A00086C28000884000020C3
:1027E0006C330000601A000800A24A0400000000D8
:1027F00000000000010203040607080900000000B1
:102800000102030401020304060708090204060882
:1028100000000000000000000000000000000000B8
:1028200000000000000000000000000000000000A8
:102830000000000000000000000000000000000098
:102840000000000000000000000000000000000088
:102850000000000000000000000000000000000078
:0C2860000000000000000000000000006C
:0400000508000131BD
:00000001FF
